S016000050494420434F4E54524F4C4C45522E737265630D
S113000045C0000053C0000051C000004FC00000B4
S11300104DC000004BC0000049C0000047C00000B4
S113002045C0000043C0000041C000003FC00000C4
S11300303DC000003BC0000039C0000037C00000D4
S113004035C0000033C0000031C000002FC00000E4
S11300502DC000002BC0000029C0000027C00000F4
S113006025C0000023C0000021C000001FC0000004
S11300701DC000001BC0000019C0000017C0000014
S113008015C0000013C0000011C0000011241FBEE1
S1130090CFEFD0E1DEBFCDBF21E0A0E0B1E001C0F1
S11300A01D92AA34B207E1F77DD1A7C3A9CF8FB5BA
S11300B0826A8FBD8EB58A618EBD80EA9FE097BD4E
S11300C086BD08954F925F926F927F928F929F9216
S11300D0AF92BF92CF92DF92EF92FF920F931F9352
S11300E0CF93DF9300D000D0CDB7DEB710923201AA
S11300F010923301109234011092350110920901CB
S113010010920801109224011092250110922601E8
S11301101092270180E090E0A0EEB0E480932A01E1
S113012090932B01A0932C01B0932D01E6E3F1E011
S11301301182108282E090E09383828384E090E0D5
S11301409583848386E090E09783868388E090E0BB
S1130150918780878AE090E0938782878CE090E0A3
S1130160958784878EE090E0978786871092230195
S11301701092220180E090E041E050E020B330E0B2
S1130180BA01082E02C0660F771F0A94E2F72623ED
S113019037232130310589F4880F991FFC01EE5E65
S11301A0FE4F51834083809108019091090101968B
S11301B0909309018093080107C0880F991FFC01DF
S11301C0EE5EFE4F118210828091220190912301F4
S11301D0019690932301809322018830910574F253
S11301E08090320190903301A0903401B090350199
S11301F086E391E09A83898302E111E00F2EF6E40D
S1130200EF2EF1E0FF2EF02DE981FA812191319159
S1130210FA83E983F801819191918F01289FB001BC
S1130220299F700D389F700D1124072E000C880B28
S1130230990BF4D19B01AC01C501B401F0D04B0181
S11302405C0189819A818E159F05F1F688E090E022
S11302509093230180932201A501940160912A01C6
S113026070912B0180912C0190912D01D7D06B01BD
S11302707C016091080170910901072E000C880B24
S1130280990BCCD19B01AC01C701B6012CD16B01F8
S11302907C01609332017093330180933401909315
S11302A0350180900E0190900F01A0901001B09044
S11302B01101A5019401B3D02B013C016093040109
S11302C0709305018093060190930701A5019401A1
S11302D0C701B601A3D04B015C0160930001709388
S11302E00101809302019093030120914601309112
S11302F047014091480150914901C701B6011AD202
S113030069837A838B839C8320912E0130912F0102
S11303104091300150913101C301B2010BD29B01D4
S1130320AC0169817A818B819C8179D02B013C015C
S113033020910A0130910B0140910C0150910D0163
S1130340C501B401F7D19B01AC01C301B20167D06F
S113035060932401709325018093260190932701D3
S1130360C0920E01D0920F01E0921001F09211019F
S113037022D1CB010F900F900F900F90DF91CF916E
S11303801F910F91FF90EF90DF90CF90BF90AF90AF
S11303909F908F907F906F905F904F900895C29A36
S11303A0C39A089584DE11BA12BA8EE387BB18BAD1
S11303B0C0EDD7E0F4DF86DEBC01990F880B990B02
S11303C02DD16B017C01DBBDCABDD9BDC8BD20E008
S11303D030E048E453E423D020E030E04AE755E439
S11303E0A9D120E030E046E953E47DD0E9D07BBDDB
S11303F06ABDA701960160E070E088E493E40ED042
S113040020E030E04AE755E495D120E030E046E9C9
S113041053E469D0D5D079BD68BDCCCF5058BB2743
S1130420AA270ED04DC13ED130F043D120F031F493
S11304309F3F11F41EF433C10EF4E095E7FB29C18C
S1130440E92F4FD180F3BA17620773078407950722
S113045018F071F49EF567C10EF4E0950B2EBA2FD7
S1130460A02D0B01B90190010C01CA01A0011124B6
S1130470FF27591B99F0593F50F4503E68F11A1662
S1130480F040A22F232F342F4427585FF3CF4695F3
S113049037952795A795F0405395C9F77EF41F1615
S11304A0BA0B620B730B840BBAF09150A1F0FF0FDF
S11304B0BB1F661F771F881FC2F70EC0BA0F621FCB
S11304C0731F841F48F4879577956795B795F795BB
S11304D09E3F08F0B3CF9395880F08F09927EE0F4D
S11304E09795879508950CD0EBC0E3D040F0DAD00F
S11304F030F021F45F3F19F0CCC0511115C1CFC0C9
S1130500F0D098F39923C9F35523B1F3951B550BF8
S1130510BB27AA2762177307840738F09F5F5F4FD2
S1130520220F331F441FAA1FA9F333D00E2E3AF013
S1130530E0E830D091505040E695001CCAF729D02D
S1130540FE2F27D0660F771F881FBB1F261737077C
S11305504807AB07B0E809F0BB0B802DBF01FF27AC
S113056093585F4F2AF09E3F510568F092C0DCC05B
S11305705F3FECF3983EDCF3869577956795B795E6
S1130580F7959F5FC9F7880F911D9695879597F901
S11305900895E1E0660F771F881FBB1F621773077A
S11305A08407BA0720F0621B730B840BBA0BEE1F8F
S11305B088F7E095089504D06894B111B5C0089502
S11305C098D088F09F5790F0B92F9927B751A0F091
S11305D0D1F0660F771F881F991F1AF0BA95C9F7D3
S11305E012C0B13081F09FD0B1E008959CC0672F54
S11305F0782F8827B85F39F0B93FCCF38695779583
S11306006795B395D9F73EF490958095709561956B
S11306107F4F8F4F9F4F0895E89409C097FB3EF496
S113062090958095709561957F4F8F4F9F4F99233B
S1130630A9F0F92F96E9BB279395F69587957795B9
S11306406795B795F111F8CFFAF4BB0F11F460FF79
S11306501BC06F5F7F4F8F4F9F4F16C0882311F0D1
S113066096E911C0772321F09EE8872F762F05C0E5
S1130670662371F096E8862F70E060E02AF09A9580
S1130680660F771F881FDAF7880F9695879597F975
S1130690089597F99F6780E870E060E008959FEF00
S11306A080EC089500240A94161617061806090605
S11306B0089500240A9412161306140605060895D4
S11306C0092E0394000C11F4882352F0BB0F40F45C
S11306D0BF2B11F460FF04C06F5F7F4F8F4F9F4F9C
S11306E0089557FD9058440F551F59F05F3F71F01E
S11306F04795880F97FB991F61F09F3F79F0879585
S11307000895121613061406551FF2CF4695F1DF0D
S113071008C0161617061806991FF1CF869571059D
S1130720610508940895E894BB2766277727CB01D1
S113073097F908950BD0C4CFB5DF28F0BADF18F0CD
S1130740952309F0A6CFABCF1124EECFCADFA0F3D7
S1130750959FD1F3950F50E0551F629FF001729F52
S1130760BB27F00DB11D639FAA27F00DB11DAA1F71
S1130770649F6627B00DA11D661F829F2227B00DBE
S1130780A11D621F739FB00DA11D621F839FA00D49
S1130790611D221F749F3327A00D611D231F849F99
S11307A0600D211D822F762F6A2F11249F575040F0
S11307B08AF0E1F088234AF0EE0FFF1FBB1F661F8B
S11307C0771F881F91505040A9F79E3F510570F044
S11307D060CFAACF5F3FECF3983EDCF38695779524
S11307E06795B795F795E7959F5FC1F7FE2B880F3F
S11107F0911D9695879597F90895F894FFCF7B
S9030000FC
