:100000000C942A000C943C000C943C000C943C0092
:100010000C943C000C943C000C943C000C943C0070
:100020000C943C000C943C000C943C000C943C0060
:100030000C943C000C943C000C943C000C943C0050
:100040000C943C000C943C000C943C000C943C0040
:100050000C943C0011241FBECFE5D8E0DEBFCDBF1D
:1000600020E0A0E6B0E001C01D92A236B207E1F7A1
:100070000E9461000C940A030C940000C29AC0987C
:10008000C39AC5980895C298C09AC398C59A08950E
:10009000C298C098C398C5980895C29AC098C3984A
:1000A000C59A0895C29AC098C39AC5980895C29AED
:1000B000C098C39AC5980895C29AC098C39AC59823
:1000C00008951ABA1BBA8DE287BB18BAC1E0D0E016
:1000D0006894882482F8912C6894AA24A1F8B12C01
:1000E000EE24E394F12C0F2EF3E0CF2ED12CF02D43
:1000F00005E010E0C89911C0C9990FC0CA990DC098
:10010000CB990BC0CC9909C0CD9907C0CE9905C039
:10011000CF9903C00E943E00EDCFCC994AC0CD9943
:1001200048C0CE9946C0CF9944C00E943E0087EC9B
:1001300090E00197F1F700C000000E944800C89BC2
:1001400011C0C99B0FC0CA9B0DC0CB9B0BC0CC9BE1
:1001500009C0CD9B07C0CE9B05C0CF9B03C00E94AA
:100160004D001DC089B329B399B349B382FB8827D9
:1001700080F9382F3C2723FB882780F98C27832B95
:10018000929591709C27892B29F445FB442740F9CF
:100190004C1719F00E943E0002C00E944D009FEFD4
:1001A00020E782E0915020408040E1F700C000004D
:1001B000A1CFCB994AC0CC9948C0CD9946C0CE9921
:1001C00044C00E943E0087EC90E00197F1F700C028
:1001D00000000E944800C89B11C0C99B0FC0CA9B69
:1001E0000DC0CB9B0BC0CC9B09C0CD9B07C0CE9B49
:1001F00005C0CF9B03C00E944D001DC089B329B329
:1002000099B349B382FB882780F9382F3C2723FB19
:10021000882780F98C27832B929591709C27892BB6
:1002200029F445FB442740F94C1719F00E943E0081
:1002300002C00E944D009FEF20E782E091502040D5
:100240008040E1F700C0000055CFCA990DC0CB999E
:100250000BC0CC9909C0CD9907C00E943E00F09216
:100260006100E092600046CFC8994AC0C99948C071
:10027000CA9946C0CB9944C00E943E0087EC90E0EA
:100280000197F1F700C000000E944800C89B11C010
:10029000C99B0FC0CA9B0DC0CB9B0BC0CC9B09C098
:1002A000CD9B07C0CE9B05C0CF9B03C00E945200D0
:1002B0001DC089B329B399B349B382FB882780F95C
:1002C000382F3C2723FB882780F98C27832B929596
:1002D00091709C27892B29F445FB442740F94C1742
:1002E00019F00E943E0002C00E9452009FEF20E7DA
:1002F00082E0915020408040E1F700C00000FACE3B
:10030000C9994AC0CA9948C0CB9946C0CC9944C043
:100310000E943E0087EC90E00197F1F700C00000DA
:100320000E944800C89B11C0C99B0FC0CA9B0DC04A
:10033000CB9B0BC0CC9B09C0CD9B07C0CE9B05C0FF
:10034000CF9B03C00E9452001DC089B329B399B34B
:1003500049B382FB882780F9382F3C2723FB882765
:1003600080F98C27832B929591709C27892B29F4F7
:1003700045FB442740F94C1719F00E943E0002C08B
:100380000E9452009FEF20E782E091502040804081
:10039000E1F700C00000AECECD990BC0CE9909C0E8
:1003A000CF9907C00E944D00109361000093600038
:1003B000A1CECC990BC0CD9909C0CE9907C00E949F
:1003C0005700D0926100C092600094CECA990BC0D1
:1003D000CB9909C0CC9907C00E943E00F092610001
:1003E000E092600087CECB990BC0CC9909C0CD9923
:1003F00007C00E943E00F0926100E09260007ACE59
:10040000C9990BC0CA9909C0CB9907C00E945C006A
:10041000B0926100A09260006DCEC8990BC0C999DE
:1004200009C0CA9907C00E94520090926100809250
:10043000600060CECE9909C0CF9907C00E944D00E0
:10044000109361000093600055CECD9909C0CE99FC
:1004500007C00E945700D0926100C09260004ACE4F
:10046000CA9909C0CB9907C00E943E00F092610072
:10047000E09260003FCECB9909C0CC9907C00E94A2
:100480003E00F0926100E092600034CECC9909C049
:10049000CD9907C00E943E00F0926100E09260009A
:1004A00029CEC99909C0CA9907C00E945C00B092C0
:1004B0006100A09260001ECEC89909C0C99907C00A
:1004C0000E945200909261008092600013CECE99FB
:1004D00007C00E944D0010936100009360000ACE97
:1004E000CF9907C00E944D001093610000936000F7
:1004F00001CECD9907C00E945700D0926100C092F2
:100500006000F8CDCB9907C00E943E00F0926100D8
:10051000E0926000EFCDCC9907C00E943E00F092BF
:100520006100E0926000E6CDCA9907C00E945C00BD
:10053000B0926100A0926000DDCDC89907C00E9412
:1005400052009092610080926000D4CDC89B3EC062
:10055000C99B3CC0CA9B3AC0CB9B38C0CC9B36C021
:10056000CD9B34C0CE9B32C0CF9B30C02091600069
:10057000309161008C2F2230310509F08D2F8111CF
:1005800006C08C2F2430310509F08D2F81110E9477
:10059000570020916000309161008C2F233031058D
:1005A00009F08D2F811106C08C2F2530310509F0FF
:1005B0008D2F81110E945C008091600090916100FC
:1005C000019709F097CD0E943E0094CD8091600084
:1005D000909161008130910519F40E943E008ACD0E
:1005E0008230910519F40E945C0084CD833091051E
:1005F00019F40E9457007ECD8430910519F40E94B1
:10060000520078CD059719F40E944D0073CD0E94D9
:08061000430070CDF894FFCF08
:00000001FF
