:100000000C942A000C9447000C9447000C94470071
:100010000C9447000C9447000C9447000C94470044
:100020000C9447000C9447000C9447000C94470034
:100030000C9447000C9447000C9447000C94470024
:100040000C9447000C9447000C9447000C94470014
:100050000C94470011241FBECFE5D8E0DEBFCDBF12
:1000600010E0A0E6B0E0EAEDFAE002C005900D92E3
:10007000A636B107D9F720E0A6E6B0E001C01D9290
:10008000A837B207E1F70E94A4010C946B050C9409
:1000900000008FB5826A8FBD8EB58A618EBD88EEF5
:1000A00093E097BD86BD0895C298C098C398C5983F
:1000B000089580E991E09BBD8ABD88EE93E099BDEB
:1000C00088BDC29AC098C39AC5980895C29AC0982C
:1000D000C39AC59808952091700030917100809165
:1000E00064009091650028173907B9F468EE73E051
:1000F00044E650E07BBD6ABD59BD48BDC09AC29878
:10010000C39AC5982091700030917100809164006D
:10011000909165002817390769F3089520917000C0
:100120003091710080916400909165002817390723
:10013000B9F464E670E048EE53E07BBD6ABD59BD9A
:1001400048BDC09AC298C39AC5982091700030915A
:10015000710080916400909165002817390769F358
:100160000895C09AC298C398C59A2FEF84E39CE083
:10017000215080409040E1F700C0000008950E94A7
:1001800066002FEF80E792E0215080409040E1F739
:1001900000C000000895CF92DF92EF92FF920F937C
:1001A0001F93CF93DF93CDB7DEB7A0970FB6F89428
:1001B000DEBF0FBECDBF1A82198284E090E09C831F
:1001C0008B8388E090E09E838D838CE090E098871D
:1001D0008F8380E190E09A87898784E190E09C8713
:1001E0008B8788E190E09E878D878CE190E0988BEB
:1001F0008F8710926F0010926E00DE015196FD0104
:1002000020E030E060E070E041E050E089B390E051
:10021000022E02C0959587950A94E2F780FD03C0EF
:100220005183408304C0118210826F5F7F4F2F5F24
:100230003F4F30936F0020936E0032962830310587
:1002400029F78091700090917100FE0131967E0136
:1002500021E1E20EF11C019111914D915D91049FFC
:100260009001059F300D149F300D1124820F931FB4
:10027000EE16FF0681F728E030E030936F00209300
:100280006E006115710539F00E944305709371008D
:100290006093700008C08091640090916500909315
:1002A0007100809370000091700010917100809136
:1002B0006C0090916D00B801681B790B072E000C43
:1002C000880B990B0E944A042091660030916700C8
:1002D00040916800509169000E94D6046B017C0136
:1002E0006EE070E0601B710B072E000C880B990B01
:1002F0000E944A04209160003091610040916200A8
:10030000509163000E94D6049B01AC01C701B60165
:100310000E94A6030E941204709371006093700003
:1003200070936D0060936C00CB01A0960FB6F894AB
:10033000DEBF0FBECDBFDF91CF911F910F91FF9018
:10034000EF90DF90CF9008950E9449000F2EF2E3C6
:10035000EF2EF12CF02D00EA1FE0CCE2D1E0DD24FD
:10036000D3940F2EF6E0AF2EB12CF02D0E94660034
:100370000E94CB0090936B0080936A009701281B2A
:10038000390B220F331F3093770020937600C296EB
:10039000880F991F9093730080937200209FC00173
:1003A000219F900D309F900D1124BE010E944305A6
:1003B0007BBD6ABD2091720030917300209FC00107
:1003C000219F900D309F900D1124BE010E94430586
:1003D00079BD68BDC89B15C0C99B13C0CA9B11C01D
:1003E000CB9B0FC0CC9B0DC0CD9B0BC0CE9B09C03F
:1003F000CF9B07C00E94B100B0927500A09274001C
:10040000B5CFCC9950C0CD994EC0CE994CC0CF99A4
:100410004AC00E9454002FE788E391E021508040B9
:100420009040E1F700C000000E94BF00C89B11C0CF
:10043000C99B0FC0CA9B0DC0CB9B0BC0CC9B09C0F6
:10044000CD9B07C0CE9B05C0CF9B03C00E946B0015
:100450008DCF89B349B339B329B399B369B38695BD
:100460008170582F5D2542FB442740F9842F8D254C
:10047000852B33FB332730F93D25832B22952170C3
:100480002D25822B95FB992790F99D25892B29F401
:1004900066FB662760F96D1519F00E94660066CF4D
:1004A0000E94590063CFCB9950C0CC994EC0CD99D2
:1004B0004CC0CE994AC00E9454002FE788E391E0D7
:1004C000215080409040E1F700C000000E94BF0032
:1004D000C89B11C0C99B0FC0CA9B0DC0CB9B0BC052
:1004E000CC9B09C0CD9B07C0CE9B05C0CF9B03C052
:1004F0000E946B003BCF89B349B339B329B399B399
:1005000069B386958170582F5D2542FB442740F9D9
:10051000842F8D25852B33FB332730F93D25832B05
:10052000229521702D25822B95FB992790F99D25E9
:10053000892B29F466FB662760F96D1519F00E9476
:10054000660014CF0E94590011CFC89950C0C999B4
:100550004EC0CA994CC0CB994AC00E9454002FE7A4
:1005600088E391E0215080409040E1F700C0000016
:100570000E94BF00C89B11C0C99B0FC0CA9B0DC081
:10058000CB9B0BC0CC9B09C0CD9B07C0CE9B05C0AD
:10059000CF9B03C00E948E00E9CE89B349B339B323
:1005A00029B399B369B386958170582F5D2542FBB5
:1005B000442740F9842F8D25852B33FB332730F9D1
:1005C0003D25832B229521702D25822B95FB992784
:1005D00090F99D25892B29F466FB662760F96D1536
:1005E00019F00E946600C2CE0E946B00BFCEC9996E
:1005F00051C0C9994FC0CA994DC0CB994BC0CC9935
:1006000049C00E9454002FE788E391E021508040C8
:100610009040E1F700C000000E94BF00C89B11C0DD
:10062000C99B0FC0CA9B0DC0CB9B0BC0CC9B09C004
:10063000CD9B07C0CE9B05C0CF9B03C00E948E0000
:1006400095CE89B349B339B329B399B369B38695C4
:100650008170582F5D2542FB882780F98D25852BD9
:1006600033FB332730F93D25832B229521702D252F
:10067000282B95FB882780F98D25822B29F466FB92
:10068000662760F96D1519F00E9466006FCE0E9412
:100690006B006CCEC8996ACEC99968CECA9966CEED
:1006A000CB9964CECC9962CECD9960CECE995ECEF8
:1006B000CF995CCE0E9454002FE788E391E021504F
:1006C00080409040E1F700C000000E94BF00C89B3E
:1006D00011C0C99B0FC0CA9B0DC0CB9B0BC0CC9B4C
:1006E00009C0CD9B07C0CE9B05C0CF9B03C00E9415
:1006F00066003CCE49B359B339B389B399B379B3E2
:1007000046954170642F6D2552FB442740F9242FF4
:100710002D25462F422B33FB222720F92D25242B74
:10072000829581708D25282B95FB882780F98D2552
:10073000822B29F476FB772770F97D1519F00E943A
:10074000660014CE0E94660011CE5058BB27AA271F
:100750000E94BD030C949C040E948E0438F00E94F9
:10076000950420F039F49F3F19F426F40C948B047F
:100770000EF4E095E7FB0C948504E92F0E94AD048C
:1007800058F3BA17620773078407950720F079F4C6
:10079000A6F50C94CF040EF4E0950B2EBA2FA02DE5
:1007A0000B01B90190010C01CA01A0011124FF271E
:1007B000591B99F0593F50F4503E68F11A16F04019
:1007C000A22F232F342F4427585FF3CF4695379518
:1007D0002795A795F0405395C9F77EF41F16BA0BDD
:1007E000620B730B840BBAF09150A1F0FF0FBB1F8B
:1007F000661F771F881FC2F70EC0BA0F621F731FD4
:10080000841F48F4879577956795B795F7959E3F30
:1008100008F0B0CF9395880F08F09927EE0F9795C1
:10082000879508950E9419046894B1110C94D0041E
:1008300008950E94B50488F09F5798F0B92F992722
:10084000B751B0F0E1F0660F771F881F991F1AF0BB
:10085000BA95C9F714C0B13091F00E94CF04B1E04D
:1008600008950C94CF04672F782F8827B85F39F04C
:10087000B93FCCF3869577956795B395D9F73EF454
:1008800090958095709561957F4F8F4F9F4F0895FC
:10089000E89409C097FB3EF490958095709561951A
:1008A0007F4F8F4F9F4F9923A9F0F92F96E9BB27D0
:1008B0009395F695879577956795B795F111F8CF4C
:1008C000FAF4BB0F11F460FF1BC06F5F7F4F8F4FB7
:1008D0009F4F16C0882311F096E911C0772321F0AD
:1008E0009EE8872F762F05C0662371F096E8862F45
:1008F00070E060E02AF09A95660F771F881FDAF79C
:10090000880F9695879597F9089597F99F6780E8DE
:1009100070E060E008959FEF80EC089500240A9451
:100920001616170618060906089500240A941216CA
:100930001306140605060895092E0394000C11F4FD
:10094000882352F0BB0F40F4BF2B11F460FF04C0AA
:100950006F5F7F4F8F4F9F4F089557FD9058440F03
:10096000551F59F05F3F71F04795880F97FB991F0E
:1009700061F09F3F79F087950895121613061406CB
:10098000551FF2CF4695F1DF08C016161706180658
:10099000991FF1CF86957105610508940895E89433
:1009A000BB2766277727CB0197F908950E94E904B2
:1009B0000C949C040E948E0438F00E94950420F050
:1009C000952311F00C9485040C948B0411240C9441
:1009D000D0040E94AD0470F3959FC1F3950F50E0D1
:1009E000551F629FF001729FBB27F00DB11D639FE1
:1009F000AA27F00DB11DAA1F649F6627B00DA11D87
:100A0000661F829F2227B00DA11D621F739FB00D2C
:100A1000A11D621F839FA00D611D221F749F33279C
:100A2000A00D611D231F849F600D211D822F762F35
:100A30006A2F11249F5750409AF0F1F088234AF012
:100A4000EE0FFF1FBB1F661F771F881F915050407E
:100A5000A9F79E3F510580F00C9485040C94D004B6
:100A60005F3FE4F3983ED4F3869577956795B79505
:100A7000F795E7959F5FC1F7FE2B880F911D96951F
:100A8000879597F9089597FB072E16F4009407D0E1
:100A900077FD09D00E94570507FC05D03EF49095DC
:100AA00081959F4F0895709561957F4F0895AA1B7A
:100AB000BB1B51E107C0AA1FBB1FA617B70710F049
:100AC000A61BB70B881F991F5A95A9F7809590957B
:0A0AD000BC01CD010895F894FFCF9A
:060ADA000000803F6400F3
:00000001FF
